:020000040800F2
:1000000000500020650700088506000887060008E4
:10001000890600088B0600088D0600080000000015
:100020000000000000000000000000007117000840
:100030008F0600080000000011180008551800087D
:10004000AD070008AD070008AD070008AD070008C0
:10005000AD070008AD070008AD070008AD070008B0
:10006000AD070008AD070008AD070008AD070008A0
:10007000AD070008AD070008AD070008AD07000890
:10008000AD070008AD070008AD070008AD07000880
:10009000AD070008AD070008AD070008AD07000870
:1000A000AD07000891060008AD070008AD0700087D
:1000B000AD070008A1060008AD070008AD0700085D
:1000C000AD070008AD070008AD070008AD07000840
:1000D000AD070008AD070008AD070008AD07000830
:1000E000AD070008AD070008AD07000800000000DC
:1000F0000000000000000000000000000000000000
:0C01000000000000000000005FF808F1A3
:1001100010B5054C237833B9044B13B10448AFF341
:1001200000800123237010BDCC04002000000000DB
:10013000EC24000808B5034B1BB103490348AFF397
:10014000008008BD00000000D0040020EC2400085E
:1001500008B500F09BF808BDF8B507460E461546F1
:100160001C463A7EB989B86800F0B0FC327EB1898D
:10017000B06800F0ABFC2A7EA989A86800F0A6FC54
:10018000227EA189A06800F0A1FC0122B98838680C
:1001900000F09CFC0122B188306800F097FC01223D
:1001A000A988286800F092FC0122A188206800F04C
:1001B0008DFC852000F08EF80022B988386800F0A8
:1001C00085FC0022B188306800F080FC0022A988FC
:1001D000286800F07BFC0022A188206800F076FCF3
:1001E000852000F077F8BCE770470000052A43D867
:1001F000DFE802F0030E19242F3900221F4B9A6109
:1002000001231F498B611F498A611F4A936170470F
:1002100001221A4B9A61002319498B6119498A619D
:10022000194A936170470023144A9361144A9361F9
:100230000123144A9361144A9361704701230F4AC2
:1002400093610F4A936100230E4A93610E4A9361B2
:1002500070470123094A9361094A9361094A9361EE
:10026000094A936170470023044A9361044A9361E9
:10027000044A9361044A9361704700BF6C000020F8
:10028000240000204800002000000020104BD3F87C
:10029000FC2022F08072C3F8FC20D3F8FC2042F04E
:1002A0008072C3F8FC20A3F55D431A6822F00102B6
:1002B0001A601A6842F001021A6000225A6000BFF8
:1002C00000BF00BF5B680BB1012070470020704782
:1002D00000ED00E010B582B0ADF806000D4B5C6893
:1002E00000F0F8FE0C49A1FB0031890CBDF8063086
:1002F0009BB201FB03F39BB2ADF80630054B5A6885
:10030000121BBDF806309BB25B1A9A42F6D302B0BC
:1003100010BD00BF001000E083DE1B4310B582B0AB
:10032000ADF806000A4B5C6800F0D4FE0949A1FB59
:1003300000318909BDF8060080B2054B5A68121BCE
:10034000431E01FB03F39A42F7D302B010BD00BF76
:10035000001000E0D34D621008B500231A4619467C
:100360001846FFF743FF4FF47A70FFF7D7FF0023DB
:10037000012219461846FFF739FF4FF47A70FFF74C
:10038000CDFF012001F062F9E7E708B5012001F097
:100390005DF9FBE708B5054B054A06490648FFF736
:1003A000DBFE012001F052F9F5E700BF2400002038
:1003B0006C0000200000002048000020034B036078
:1003C000034B0B6080231360704700BFF4060020CE
:1003D000F404002010B596B0FFF7BAFEFFF704FF53
:1003E0001B4C0DF13C0CA646BEE80F00ACE80F001C
:1003F0009EE807008CE8070000210FA801F0F1F843
:10040000144B18600DF1200C04F11C0EBEE80F0017
:10041000ACE80F009EE807008CE80700002108A860
:1004200001F0DFF80C4B18600DF1040E04F1380CEC
:10043000BCE80F00AEE80F009CE807008EE807005C
:10044000002101A801F0CDF8044B186016B010BDD2
:1004500004250008F0040020E8040020EC0400203B
:100460002DE9F04188B00024049405940694079483
:10047000204B9A6942F020029A619A6902F02002A8
:100480000192019A9A6942F004029A619A6902F013
:1004900004020292029A9A6942F008029A619B69E8
:1004A00003F008030393039BDFF84C8022460321EB
:1004B000404600F00BFB114D22464FF47351284685
:1004C00000F004FB032304930127059706940226FA
:1004D000079604A9404600F0E7F94FF473530493DC
:1004E00005970694079604A9284600F0DDF908B0A0
:1004F000BDE8F0810010024000080140000C0140FE
:1005000008B50268034B9A4200D008BD00F062F9BA
:10051000FBE700BF002C014072B6FEE700B591B0CA
:100520002822002106A801F01FFF00230193029357
:10053000039304930593012206924FF480330793AB
:100540000A9202220D920E934FF4E0130F9306A825
:1005500000F0D8FA80B90F23019302210291002301
:1005600003934FF480620492059301A800F0FCFC11
:1005700020B911B05DF804FBFFF7CEFFFFF7CCFF09
:1005800008B500F015F9FFF7C9FFFFF769FF00F0A4
:1005900091F8FFF71FFF01F01FF8FEE700B583B0E9
:1005A000114B9A6942F001029A619A6902F00102C4
:1005B0000092009ADA6942F08052DA61DB6903F056
:1005C00080530193019B00220F216FF0010000F086
:1005D00025F9064A536823F0E06343F080735360C3
:1005E00003B05DF804FB00BF0010024000000140B2
:1005F00030B589B004461E4B9A6942F400629A6194
:100600009B6903F400630193019B02A903A800F016
:1006100077FD00F065FD03461648A0FB03239B0C05
:10062000013B1548154A026040F2E732C260436060
:10063000002303618360836100F0D8FE054610B19A
:10064000284609B030BD0C4800F0A6FD054600283C
:10065000F6D1192000F01AF90F2C01D90125EFE786
:1006600000222146192000F0D9F8054B1C60E7E76D
:100670000010024083DE1B4348070020002C01408D
:1006800098000020FEE7FEE7FEE7FEE7FEE7704782
:1006900008B5024800F0B8FD08BD00BF48070020BB
:1006A00008B5024800F0B0FD08BD00BF900700206B
:1006B0007047000000B587B00023029303930493B2
:1006C0000593009301931548154A02604722426042
:1006D00083604FF6FF72C2600361836100F086FEA3
:1006E00090B94FF48053029302A90C4800F0B6FE73
:1006F00068B90023009301936946084800F02EFF73
:1007000040B907B05DF804FBFFF706FFE9E7FFF724
:1007100003FFEEE7FFF700FFF3E700BF90070020BD
:100720000004004002680E4B9A4200D0704700B5AA
:1007300083B003F50333DA6942F00202DA61DB6960
:1007400003F002030193019B002205211D2000F00C
:1007500065F81D2000F09AF803B05DF804FB00BFB7
:1007600000040040FFF7A4FF0B480C490C4A00238B
:1007700002E0D458C4500433C4188C42F9D3094A57
:10078000094C002301E013600432A242FBD301F0C4
:10079000C7FDFFF7F5FE704700000020CC040020E5
:1007A000C0250008CC04002034150020FEE700001E
:1007B00008B5074A136843F010031360032000F0E4
:1007C0001BF80F20FFF714FFFFF7E8FE002008BD1D
:1007D00000200240034A1168034B1B780B4413604E
:1007E000704700BFD807002094000020014B186814
:1007F000704700BFD8070020074AD36823F4E0639E
:100800001B041B0C000200F4E060034343F0BF63D1
:1008100043F40033D360704700ED00E000B5194B9E
:10082000DB68C3F30223C3F1070CBCF1040F28BF3C
:100830004FF0040C03F1040EBEF1060F18D9033B70
:100840004FF0FF3E0EFA0CFC21EA0C0199400EFA23
:1008500003F322EA0303194300280BDB0901C9B2A1
:1008600000F1604000F5614080F800135DF804FB82
:100870000023E5E700F00F000901C9B2024B19544B
:10088000F4E700BF00ED00E014ED00E0002807DB16
:1008900000F01F02400901239340024A42F8203031
:1008A000704700BF00E100E070B582B00024A446AC
:1008B000A6E0804DAA4210D007D97F4DAA420CD0A5
:1008C00005F58035AA4208D013E0A5F58015AA42A7
:1008D00003D005F57025AA4207D18A68002A58D0AE
:1008E000012A51D04361082403E0A5F58015AA42EE
:1008F000F3D0BEF1FF0F4ED80646BEF1FF0F4CD825
:100900004FEA8C0233680F25954023EA050304FA69
:1009100002F2134333604B6813F0805F6ED0674B75
:100920009A6942F001029A619B6903F00103019305
:10093000019B4FEA9C02951C614B53F825600CF01B
:1009400003039D000F23AB4026EA03065D4B98424C
:1009500029D003F58063984200F08E8003F5806310
:10096000984200F08B8003F58063984219D00423ED
:100970001AE0CC68BDE7CC680434BAE7CC68083428
:10098000B7E7CC680C34B4E703610824B1E700246E
:10099000AFE70424ADE7061DAFE7ACF10802920013
:1009A000B0E7032300E00023AB4033430232444D61
:1009B00045F822304B6813F4801F61D0424A936897
:1009C00043EA0E0393604B6813F4001F5ED03E4A67
:1009D000D36843EA0E03D3604B6813F4003F5BD047
:1009E000394A536843EA0E0353604B6813F4803F5F
:1009F00058D0354A136843EA0E0313600CF1010C1A
:100A00000A6832FA0CF353D0012303FA0CF302EA1A
:100A1000030E33EA0202F1D14A68122A3FF649AFC7
:100A2000122A3FF666AF01A555F822F0DB08000850
:100A3000730900087D0900088F090008F308000801
:100A4000F3080008F3080008F3080008F30800089A
:100A5000F3080008F3080008F3080008F30800088A
:100A6000F3080008F3080008F3080008F30800087A
:100A70007709000883090008012395E7022393E71B
:100A8000114A936823EA0E0393609CE70E4AD368E9
:100A900023EA0E03D3609FE70B4A536823EA0E0351
:100AA0005360A2E7084A136823EA0E031360A5E720
:100AB00002B070BD00002210000031100010024092
:100AC0000000014000080140000401400AB101613A
:100AD000704709040161704782B0084B1B68084ADF
:100AE000A2FB03235B0A00FB03F3019300BF019BFE
:100AF0005A1E0192002BF9D102B0704790000020DD
:100B0000D34D6210002800F0F18170B582B0044628
:100B1000036813F0010F2CD0994B5B6803F00C03B2
:100B2000042B1DD0964B5B6803F00C03082B12D0EE
:100B30006368B3F5803F41D0002B55D103F180436A
:100B400003F504331A6822F480321A601A6822F41A
:100B500080221A6037E08A4B5B6813F4803FE7D04D
:100B6000874B1B6813F4003F03D06368002B00F031
:100B7000BF81236813F0020F75D0814B5B6813F0BF
:100B80000C0F5FD07E4B5B6803F00C03082B54D036
:100B90002369002B00F08A807A4B01221A60FFF74C
:100BA00025FE0546764B1B6813F0020F75D1FFF743
:100BB0001DFE401B0228F5D903209EE1704A1368F0
:100BC00043F480331360636843B3FFF70FFE0546B9
:100BD0006B4B1B6813F4003FCBD1FFF707FE401BA4
:100BE0006428F5D9032088E1B3F5A02F09D0644B20
:100BF0001A6822F480321A601A6822F480221A607D
:100C0000E1E703F18043A3F53C331A6842F4802204
:100C10001A601A6842F480321A60D4E7FFF7E6FDE2
:100C20000546574B1B6813F4003FA2D0FFF7DEFDCB
:100C3000401B6428F5D903205FE1514B5B6813F436
:100C4000803FA5D14E4B1B6813F0020F03D02369E0
:100C5000012B40F04F814A4A136823F0F803616981
:100C600043EAC1031360236813F0080F33D0A3696C
:100C7000002B5CD0434B0122C3F88024FFF7B6FD64
:100C800005463F4B5B6A13F0020F21D1FFF7AEFD23
:100C9000401B0228F5D903202FE1394A136823F0BD
:100CA000F803616943EAC1031360DCE7354B0022B6
:100CB0001A60FFF79BFD0546314B1B6813F0020FCE
:100CC000D1D0FFF793FD401B0228F5D9032014E192
:100CD0000120FFF701FF236813F0040F00F0968056
:100CE000274BDB6913F0805F34D1254BDA6942F082
:100CF0008052DA61DB6903F080530193019B012587
:100D0000214B1B6813F4807F26D0E368012B3DD074
:100D1000002B53D103F1804303F504331A6A22F008
:100D200001021A621A6A22F004021A6233E0154BB9
:100D30000022C3F88024FFF759FD0546104B5B6A7B
:100D400013F0020FC7D0FFF751FD401B0228F5D961
:100D50000320D2E00025D3E70B4A136843F48073E5
:100D60001360FFF743FD0646074B1B6813F4807FB3
:100D7000CBD1FFF73BFD801B6428F5D90320BCE0F5
:100D80000010024000004242007000405F4A136AB7
:100D900043F001031362E36833B3FFF727FD064610
:100DA0005A4B1B6A13F0020F2FD1FFF71FFD801B58
:100DB00041F288339842F3D903209EE0052B09D0F5
:100DC000524B1A6A22F001021A621A6A22F00402D5
:100DD0001A62E0E74D4B1A6A42F004021A621A6A7C
:100DE00042F001021A62D6E7FFF700FD0646474BC4
:100DF0001B6A13F0020F08D0FFF7F8FC801B41F2CA
:100E000088339842F3D9032077E0E5B9E369002BF2
:100E100072D03E4A526802F00C02082A56D0022BC9
:100E200017D03B4B00221A66FFF7E0FC0446374B15
:100E30001B6813F0007F47D0FFF7D8FC001B022887
:100E4000F5D9032059E0314AD36923F08053D361A7
:100E5000DCE72F4B00221A66FFF7C8FC05462B4B38
:100E60001B6813F0007F06D0FFF7C0FC401B022870
:100E7000F5D9032041E0236AB3F5803F1AD0234916
:100E80004B6823F47413226A606A024313434B6075
:100E90001F4B01221A66FFF7A9FC04461B4B1B6877
:100EA00013F0007F0ED1FFF7A1FC001B0228F5D93B
:100EB000032022E0154A536823F40033A1680B4352
:100EC0005360DCE7002018E0002016E0012B16D06C
:100ED0000E4B5B6803F48031226A914211D103F416
:100EE0007013626A93420ED1002006E00120704721
:100EF000012002E0012000E0002002B070BD0120CE
:100F0000FBE70120F9E70120F7E700BF00100240EE
:100F1000000042420F4B5B6803F00C02082A01D02C
:100F20000D487047C3F383420C49885C13F4803F3B
:100F30000BD0084B5B68C3F34043094AD35C064AB5
:100F400002FB00F0B0FBF3F07047064B03FB00F030
:100F5000704700BF0010024000127A00942500087C
:100F6000A425000800093D00002800F0A08070B50D
:100F70000D460446524B1B6803F007038B420BD20D
:100F80004F4A136823F007030B431360136803F001
:100F900007038B4240F08D80236813F0020F17D0B7
:100FA00013F0040F04D0474A536843F4E0635360DE
:100FB000236813F0080F04D0424A536843F4605387
:100FC0005360404A536823F0F003A1680B43536019
:100FD000236813F0010F31D06368012B20D0022B5E
:100FE00025D0384A126812F0020F64D035494A6899
:100FF00022F0030213434B60FFF7F8FB0646314B28
:101000005B6803F00C036268B3EB820F16D0FFF746
:10101000EDFB801B41F288339842F0D9032045E074
:10102000284A126812F4003FE0D101203EE0254A30
:10103000126812F0007FD9D1012037E0204B1B68E5
:1010400003F00703AB420AD91D4A136823F00703D4
:101050002B431360136803F00703AB422DD12368C1
:1010600013F0040F06D0174A536823F4E063E168D5
:101070000B435360236813F0080F07D0114A5368DD
:1010800023F46053216943EAC1035360FFF742FF31
:101090000C4B5B68C3F303130B4AD35CD8400B4B78
:1010A00018600B4B1868FFF7A3FA002070BD0120F1
:1010B00070470120FAE70120F8E70120F6E700BFBA
:1010C00000200240001002407C2500089000002013
:1010D00098000020014B1868704700BF9000002066
:1010E00008B5FFF7F7FF044B5B68C3F3C223034A5D
:1010F000D35CD84008BD00BF001002408C2500081A
:101100000F2303600B4B5A6802F0030242605A68D7
:1011100002F0F00282605A6802F4E062C2605B682A
:10112000DB0803F4E0630361034B1B6803F0070370
:101130000B607047001002400020024010B4036AA8
:10114000046A24F001040462846924F0F00C4CEA7F
:10115000021223F00A030B438261036210BC704742
:1011600010B4036A046A24F010040462846924F44D
:10117000704C4CEA023223F0A00343EA011382616F
:10118000036210BC7047836823F070030B4343F085
:10119000070383607047000090F83D30DBB2012BFD
:1011A00027D1022380F83D300268D36843F0010361
:1011B000D3600368114A934210D0B3F1804F0DD031
:1011C000A2F59432934209D002F58062934205D091
:1011D0001A6842F001021A60002070479A6802F013
:1011E0000702062A07D01A6842F001021A6000209E
:1011F0007047012070470020704700BF002C01405D
:10120000704770477047704770B504460368DE68E2
:101210001D6915F0020F10D016F0020F0DD06FF0FF
:1012200002021A610123037703689B6913F0030F1D
:101230005ED0FFF7E6FF0023237715F0040F12D0EE
:1012400016F0040F0FD023686FF004021A61022316
:10125000237723689B6913F4407F4FD02046FFF724
:10126000D0FF0023237715F0080F12D016F0080FD7
:101270000FD023686FF008021A61042323772368D4
:10128000DB6913F0030F40D02046FFF7BAFF0023BD
:10129000237715F0100F12D016F0100F0FD023681F
:1012A0006FF010021A61082323772368DB6913F4B7
:1012B000407F31D02046FFF7A4FF0023237715F0AD
:1012C000010F02D016F0010F2DD115F0800F02D0C2
:1012D00016F0800F2FD115F0400F02D016F0400FFE
:1012E00031D115F0200F02D016F0200F33D170BD90
:1012F000FFF786FF2046FFF785FF9CE72046FFF7B4
:101300007FFF2046FFF77EFFABE72046FFF778FF21
:101310002046FFF777FFBAE72046FFF771FF204628
:10132000FFF770FFC9E723686FF001021A612046DA
:10133000FFF7E6F8C9E723686FF080021A612046DC
:1013400000F043F9C7E723686FF040021A612046B6
:10135000FFF759FFC5E723686FF020021A612046A6
:1013600000F032F9C3E7000003681F4A90420AD038
:10137000B0F1804F07D0A2F59432904203D002F52D
:101380008062904203D123F070034A681343164AE7
:1013900090420AD0B0F1804F07D0A2F5943290422B
:1013A00003D002F58062904203D123F44073CA68EF
:1013B000134323F080034A69134303608B68C362BD
:1013C0000B688362084B98420AD00123436103698A
:1013D00013F0010F03D0036923F001030361704789
:1013E0000B690363F1E700BF002C014040B310B567
:1013F000044690F83D30F3B1022384F83D30214695
:1014000051F8040BFFF7B0FF012384F8463084F84D
:101410003E3084F83F3084F8403084F8413084F81E
:10142000423084F8433084F8443084F8453084F8FE
:101430003D30002010BD80F83C30FFF773F9DBE74A
:101440000120704710B4846824F47F4C42EA0322E0
:101450000A4342EA0C02826010BC704790F83C30AC
:10146000012B78D010B50446012380F83C300223CC
:1014700080F83D300268936823F47F4323F07703BC
:1014800093600B68602B4CD029D8402B54D00CD9DA
:10149000502B22D1CA6849680068FFF74FFE5021DF
:1014A0002068FFF770FE002005E0202B0DD009D941
:1014B000302B0AD00120012384F83D30002384F82A
:1014C0003C3010BD0BB1102B05D119462068FFF739
:1014D0005AFE0020EFE70120EDE70120EBE7B3F52E
:1014E000805F34D0B3F5005F0CD1CB684A6889685F
:1014F0000068FFF7A7FF2268936843F48043936076
:101500000020D8E7702B24D1CB684A68896800682E
:10151000FFF798FF2268936843F0770393600020F9
:10152000C9E7CA6849680068FFF71AFE60212068A9
:10153000FFF729FE0020BEE7CA6849680068FFF788
:10154000FDFD40212068FFF71EFE0020B3E70020CC
:10155000B1E70120AFE702207047000090F83C306F
:10156000012B2CD010B4012380F83C30022380F8EA
:101570003D3003685A689C6822F0700C0A6842EAA1
:101580000C025A6003680F4A93420AD0B3F1804FAD
:1015900007D0A2F59432934203D002F580629342C1
:1015A00004D124F080044A6814439C60012380F82D
:1015B0003D30002380F83C30184610BC70470220B4
:1015C000704700BF002C014070477047842801D04D
:1015D000033070470020704708B500F0E5FC00209C
:1015E00008BD2DE9F04387B004460F464569BDB1FB
:1015F0008669AEB1D0F80480D0F80090B0F9080048
:10160000FFF7E4FF0296019500903B4622694946A8
:10161000404600F059FC0590059807B0BDE8F083FE
:1016200065682668D4F81080B4F90800FFF7CEFF8B
:1016300005AB019300903B461FFA88F231462846DD
:1016400000F07DFC0128E7D00020E6E708B500B9EE
:10165000012000F0F3FD002008BD00F10803436005
:101660004FF0FF328260C360036100230360704764
:1016700000230361704743684B609A688A60516039
:1016800099600861036801330360704730B40D68E6
:10169000B5F1FF3F11D000F108031C465B681A68E2
:1016A000AA42FAD963684B6099608C6061600861F6
:1016B00003680133036030BC70470469F2E70369D3
:1016C000416882688A60416851605A68824206D0E7
:1016D000002202611A68013A1A601868704782682D
:1016E0005A60F5E782B0002301930D4B1B68B3F1FC
:1016F000FF3F08D04FF0500383F31188BFF36F8F83
:10170000BFF34F8FFEE74FF0500383F31188BFF311
:101710006F8FBFF34F8F019B002BFCD002B070473F
:101720009C00002006480068006880F3088862B6C4
:1017300061B6BFF34F8FBFF36F8F00DF00BF0000B4
:1017400008ED00E04FF0807340F8043C21F0010107
:1017500040F8081C034B40F80C3C40F8202C403863
:10176000704700BFE5160008000000000000000000
:10177000074B19680868B0E8F00F80F30988BFF3D9
:101780006F8F4FF0000080F311884EF00D0E704700
:10179000041400204FF0500383F31188BFF36F8FC0
:1017A000BFF34F8F0B4A136801331360012B00D036
:1017B00070474FF0E023D3F8043D13F0FF0FF7D04C
:1017C0004FF0500383F31188BFF36F8FBFF34F8F38
:1017D000FEE700BF9C000020094B1B6843B94FF097
:1017E000500383F31188BFF36F8FBFF34F8FFEE772
:1017F000013B034A13600BB983F31188704700BFA4
:101800009C0000200000000000000000000000001C
:10181000EFF30980BFF36F8F0D4B1A6820E9F00FCB
:1018200010602DE908404FF0500080F3118800F05F
:101830002BFD4FF0000080F31188BDE808401968C7
:101840000868B0E8F00F80F30988BFF36F8F704726
:101850000414002008B54FF0500383F31188BFF340
:101860006F8FBFF34F8F00F0E1FB28B14FF0E02303
:101870004FF08052C3F8042D002383F3118808BD74
:101880004FF0E022002313619361054B1B6805496B
:10189000A1FB03139B09013B5361072313617047AD
:1018A00090000020D34D621010B582B02A4B1A78F8
:1018B000D2B20192FF221A701B78DBB28DF803308E
:1018C0009DF8033003F05003244A1370244B072281
:1018D0001A6009E0224A1368013B13609DF8033047
:1018E0005B00DBB28DF803309DF8033013F0800FFE
:1018F000F0D11B4B1B68032B08D04FF0500383F330
:101900001188BFF36F8FBFF34F8FFEE71B02144A9E
:10191000136003F4E0631360019BDBB20E4A1370A3
:101920004FF0E023D3F8202D42F47002C3F8202DAD
:10193000D3F8202D42F07042C3F8202DFFF7A0FF0E
:101940000024084B1C60FFF7EDFE00F09DFCFFF744
:10195000C9FE204602B010BD00E400E0DC07002014
:10196000E00700209C000020124A12F0070F1ED052
:10197000D11D21F00701C1F5406313440A460E480A
:101980000260002141601344083B23F007030B4829
:10199000036059601960991A51601360084B19600F
:1019A000084B1960084B4FF000421A6070474FF423
:1019B0004063E4E7E8070020FC130020E407002070
:1019C000F0130020EC130020E8130020154B1A46FA
:1019D0001B688342FBD3516802EB010C844509D09C
:1019E000416800EB010C634509D00360904218D0B8
:1019F000106070474068014451601046F0E710B431
:101A0000094C2468A3420AD05B68194441601368FA
:101A10001B680360904200D0106010BC70470460E7
:101A2000F8E77047FC130020E407002070B5054676
:101A300000F0F4FA364B1B68A3B1364B1B681D420D
:101A40004ED135B1083515F0070F02D025F0070546
:101A50000835002D46D0304B1B68AB4251D32F4A7E
:101A6000146804E0FFF780FFE7E722461C4663683E
:101A7000AB4202D22368002BF7D1254B1B68A3424F
:101A800041D0166808362368136063685B1B102B0F
:101A900010D9601910F0070F08D04FF0500383F3EE
:101AA0001188BFF36F8FBFF34F8FFEE74360656010
:101AB000FFF78CFF626818490B689B1A0B60184986
:101AC00009688B4201D216490B60124B1B68134305
:101AD000636000232360134A13680133136002E03C
:101AE000002600E0002600F02DFB16F0070F0CD0BA
:101AF0004FF0500383F31188BFF36F8FBFF34F8F05
:101B0000FEE70026EFE70026EDE7304670BD00BF98
:101B1000E4070020E8130020EC130020FC13002051
:101B2000F0130020F4130020002834D038B5044608
:101B3000A0F1080550F8043C174A1268134208D176
:101B40004FF0500383F31188BFF36F8FBFF34F8FB4
:101B5000FEE750F8081C41B14FF0500383F31188A1
:101B6000BFF36F8FBFF34F8FFEE723EA020340F806
:101B7000043C00F053FA54F8041C084A13680B4460
:101B800013602846FFF722FF054A136801331360EC
:101B900000F0D8FA38BD7047E8130020EC1300209D
:101BA000F8130020084B1B681B6823B9074B4FF044
:101BB000FF321A607047044B1B68DB68DB685A68A9
:101BC000024B1A60704700BF08140020DC1400208C
:101BD0002DE9F04707469846089DDDF824900A9CB9
:101BE000266B02F18042013A06EB820626F00706D8
:101BF00000293AD08E464FF0000CBCF10F0F0BD8E5
:101C00001EF80C2004EB0C0383F834201EF80C3073
:101C100013B10CF1010CF0E7002384F84330062DDA
:101C200000D90625E56265644FF0000AC4F848A0B3
:101C3000201DFFF71DFD04F11800FFF719FD2461B9
:101C4000C5F10705A5616462C4F84CA084F850A0F2
:101C5000424639463046FFF775FD2060B9F1000F66
:101C600001D0C9F80040BDE8F087002384F8343083
:101C7000D5E7000038B5002407E004EB84029300A8
:101C80000E481844FFF7E9FC0134062CF5D90C4D39
:101C90002846FFF7E2FC0B4C2046FFF7DEFC0A4823
:101CA000FFF7DBFC0948FFF7D8FC0948FFF7D5FC34
:101CB000084B1D60084B1C6038BD00BF101400208D
:101CC000B0140020C4140020E814002014150020D3
:101CD00000150020081400200C14002010B5044644
:101CE000FFF758FD214A136801331360204B1B682E
:101CF0005BB1204B1B686BB91D4B1B68DA6AE36A4A
:101D00009A4207D81A4B1C6004E0194B1C601368F8
:101D1000012B28D0184A136801331360E06A0123AD
:101D20008340164A11680B43136000EB8000211DAD
:101D3000134B03EB8000FFF79EFCFFF74DFD0D4BAF
:101D40001B687BB10A4B1B68DA6AE36A9A4209D2C4
:101D50004FF0E0234FF08052C3F8042DBFF34F8FB4
:101D6000BFF36F8F10BDFFF785FFD3E79C140020F2
:101D700004140020FC140020A8140020AC1400203F
:101D80001014002010B5044690F8513063B1012BB7
:101D900011D0022B0ED04FF0500383F31188BFF304
:101DA0006F8FBFF34F8FFEE7006BFFF7BDFE20463E
:101DB000FFF7BAFE10BDFFF7B7FEFBE70F4B1B683E
:101DC000D3B110B5FFF7E6FC0D4BDB68DC68201DD6
:101DD000FFF775FC0B4A1368013B1360074A136851
:101DE000013B1360FFF7F8FC2046FFF7CBFF034BE6
:101DF0001B68002BE6D110BD704700BFA014002067
:101E0000141500209C14002008B5FFF7D7FF074BDE
:101E10001B68012BF9D94FF0E0234FF08052C3F833
:101E2000042DBFF34F8FBFF36F8FEEE71014002028
:101E300070B504460D461D4B1E681D4B18680430D6
:101E4000FFF73DFC50B91A4B1B68DA6A012303FA0D
:101E500002F218490B6823EA02030B60B4F1FF3F5A
:101E60000DD03444124B1B685C60A64210D9124B53
:101E700018680F4B19680431FFF708FC70BD002D7E
:101E8000EFD00B4B196804310C48FFF7F4FBF5E772
:101E90000B4B1868064B19680431FFF7F7FB094B29
:101EA0001B68A342EAD9074B1C60E7E7281500200E
:101EB00004140020AC1400200C1400200015002095
:101EC00008140020DC14002030B587B00B9C7CB1D6
:101ED0000C9DB5B154250495049D542D1AD04FF096
:101EE000500383F31188BFF36F8FBFF34F8FFEE76B
:101EF0004FF0500383F31188BFF36F8FBFF34F8F01
:101F0000FEE74FF0500383F31188BFF36F8FBFF3E9
:101F10004F8FFEE7049D0C9D2C63022485F85140F1
:101F200000240394029505AC01940A9C0094FFF7E9
:101F30004FFE0C98FFF7D2FE059807B030BD2DE993
:101F4000F04385B00746884614461E469000FFF7CA
:101F50006DFD00B381465420FFF768FD0546B0B122
:101F6000C0F83090E5B1002385F851300393029515
:101F70000D9B01930C9B0093334622464146384605
:101F8000FFF726FE2846FFF7A9FE012005E0484698
:101F9000FFF7CAFDE6E74FF0FF3005B0BDE8F0837C
:101FA0004FF0FF30F9E7000010B588B00024059429
:101FB000069407AA06A905A8FEF700FA059B029356
:101FC000069B019300942346079A0E490E48FFF79B
:101FD0007BFF0E4B186090B14FF0500383F31188D4
:101FE000BFF36F8FBFF34F8F094B4FF0FF321A6073
:101FF000084B01221A60084B1C60FFF755FC08B023
:1020000010BD00BFA8250008091E0008D814002034
:10201000DC140020FC14002028150020024A13685C
:1020200001331360704700BFA4140020F8B53A4B89
:102030001B68002B69D1394B1D6801351D60C5B97E
:10204000374B1B681B6843B14FF0500383F3118873
:10205000BFF36F8FBFF34F8FFEE7314A1168314BEB
:10206000186810601960304A136801331360FFF775
:1020700099FD2E4B1B68AB423DD900272C4B1B68AA
:10208000DB6A03EB83039A002A4B9B58012B00D990
:102090000127294B1B68002B3CD001273AE0012780
:1020A0001F4B1B681B6843B31D4B1B68DB68DC6858
:1020B00063689D4226D3261D3046FFF700FBA36AC6
:1020C0001BB104F11800FFF7FAFAE36A01229A4003
:1020D0001A49086802430A6003EB83039A003146F9
:1020E00014481044FFF7C7FAE26A114B1B68DB6A19
:1020F0009A42D4D2D4E70027D2E70C4B4FF0FF32FC
:102100001A60BBE7094A1360B8E70D4A1368013348
:10211000136000273846F8BDA414002028150020BD
:10212000081400200C140020E0140020DC1400200F
:1021300004140020101400202C150020AC140020E2
:10214000E414002038B5354B1B6843B94FF05003F9
:1021500083F31188BFF36F8FBFF34F8FFEE7FFF755
:1021600019FB2E4B1A68013A1A601B68002B4FD1DD
:102170002B4B1B680BB900244BE00024294B1B6838
:102180001BB3284BDB68DC6804F11800FFF797FAF3
:10219000251D2846FFF793FAE06A01238340224A6F
:1021A00011680B43136000EB800029461F4B03EBC3
:1021B0008000FFF760FAE26A1D4B1B68DB6A9A42F7
:1021C000DCD31C4B01221A60D8E70CB1FFF7EAFC04
:1021D000194B1C6884B9174B1C68D4B14FF0E0232D
:1021E0004FF08052C3F8042DBFF34F8FBFF36F8FB2
:1021F00001240EE0013C07D0FFF718FF0028F9D0BA
:102200000C4B01221A60F5E70B4B00221A60E2E743
:102210000024FFF7E1FA204638BD00BFA4140020D7
:102220009C140020E8140020AC140020101400209E
:10223000041400202C150020E414002010B5A8B1CF
:102240000446104B1B6843B14FF0500383F31188D1
:10225000BFF36F8FBFF34F8FFEE7FFF7DFFE002165
:102260002046FFF7E5FDFFF76DFF48B94FF0E0238B
:102270004FF08052C3F8042DBFF34F8FBFF36F8F21
:1022800010BD00BFA4140020204B1B681BB1204BC5
:1022900001221A6070471E4B00221A601D4B1B68FA
:1022A000B3FA83F3DBB2C3F11F0303EB83018A00AC
:1022B00019498A5842B94FF0500383F31188BFF38C
:1022C0006F8FBFF34F8FFEE7134903EB830082004C
:1022D0000A4450684068506003EB830C4FEA8C025C
:1022E00008321144884209D003EB83039A000A4B59
:1022F00013445B68DA68094B1A60704740686246AD
:102300009100054A0A445060EEE700BFA414002083
:102310002C150020AC140020101400200414002000
:1023200070B50D4E0D4D761BB61006D0002455F835
:10233000043B01349847A642F9D1094E094D00F0FB
:10234000D5F8761BB61006D0002455F8043B0134AE
:102350009847A642F9D170BDB4250008B4250008FD
:10236000BC250008B4250008830730B548D0541EAA
:10237000002A3FD00346CAB201E0013C3AD303F839
:10238000012B9D07F9D1032C2DD9CDB245EA0525A6
:102390000F2C45EA054536D9A4F1100222F00F0CA6
:1023A00003F1200EE6444FEA121C03F1100242E949
:1023B000045542E9025510327245F8D10CF1010280
:1023C00014F00C0F03EB021204F00F0C13D0ACF15D
:1023D000040323F003030433134442F8045B9342E1
:1023E000FBD10CF003042CB1CAB21C4403F8012B3E
:1023F0009C42FBD130BD64461346002CF4D1F9E772
:1024000003461446BFE71A46A446E0E7024B13B161
:10241000024800F005B87047000000002D240008B5
:10242000002301461A46184600F01AB838B5084B82
:10243000084D5B1B9C1007D0043B1D44013C55F824
:1024400004399847002CF9D1BDE8384000F054B861
:10245000C0250008BC250008704700BF704700BFBA
:102460002DE9F047DFF87CA00646DAF80000984630
:102470000F469146FFF7F0FF1B4B1B68D3F848410E
:1024800024B365681F2D26DC5EB96B1C0235DAF8B3
:102490000000636044F82570FFF7E0FF0020BDE80E
:1024A000F087012304EB8501C1F88890D4F88821D6
:1024B000AB401A43022EC4F88821C1F80881E4D148
:1024C000D4F88C211343C4F88C31DEE703F5A674ED
:1024D000C3F84841D5E7DAF80000FFF7BFFF4FF037
:1024E000FF30DCE7C8040020B0250008F8B500BFC5
:1024F000F8BC08BC9E467047F8B500BFF8BC08BCE5
:042500009E4670473C
:102504005825000859030008FDFF000000000000E2
:1025140080000000000000000000000064250008A6
:1025240095030008FDFF000000000000800000008B
:102534000000000000000000702500088B03000864
:10254400FDFF00000000000080000000000000000B
:102554000000000064656661756C745461736B00FF
:102564004C55524C5F5461736B00000052554C4CF7
:102574005F5461736B000000000000000000000065
:102584000102030406070809000000000102030415
:1025940002030405060708090A0B0C0D0E0F1010A0
:1025A4000102000049444C4500000000A000002046
:0825B4000D24000835010008A8
:0425BC001101000801
:1025C0000008014002000000000801400100000076
:1025D00000000000000000000000000000000000FB
:1025E00000000000000C014000100000000C014041
:1025F00000200000000000000000000000000000BB
:102600000000000000000000000C01400004000079
:10261000000C014000080000000000000000000065
:10262000000000000000000000000000000C01405D
:1026300040000000000C014080000000000000008D
:10264000000000000000000000000000000000008A
:1026500000127A000100000010000000AAAAAAAA35
:10266000000000008C030020F40300205C04002024
:10267000000000000000000000000000000000005A
:10268000000000000000000000000000000000004A
:10269000000000000000000000000000000000003A
:1026A000000000000000000000000000000000002A
:1026B000000000000000000000000000000000001A
:1026C000000000000000000000000000000000000A
:1026D00000000000000000000000000000000000FA
:1026E00000000000000000000000000000000000EA
:1026F00000000000000000000000000000000000DA
:1027000000000000000000000100000000000000C8
:102710000E33CDAB34126DE6ECDE05000B0000008D
:1027200000000000000000000000000000000000A9
:102730000000000000000000000000000000000099
:102740000000000000000000000000000000000089
:102750000000000000000000000000000000000079
:0C2A8000000000000000000030150020E5
:040000050800076583
:00000001FF
